:060000000A128A11812E94
:100C2C00413454344834003483120313881C1F2E6F
:100C3C00202E222E0814242E0810242E0800F0003A
:100C4C0070088312031399002B2E0C1E2E2E2F2EA0
:100C5C002B2E0C1208000A128A1152260A128A1123
:100C6C00372E0A128A114C270A128A11372E372E68
:100C7C000A128A1100287E088A007F088200412609
:100C8C000A128A118000840A04087D0603190034B4
:100C9C00FF0A0319FE0A452E831603138814081045
:100CAC000713871720309800903083120313980095
:100CBC001F30831603139900831203130C128C122A
:100CCC000800F200772E72088400831300080A12C1
:100CDC008A1125260A128A110130F1007108F207D7
:100CEC00772E7208840083138008031D7E2E7F2EBE
:100CFC00692E802E08008313F030FD000630FE00B4
:100D0C00FC30FF00A03084000A128A1145260A121A
:100D1C008A116430FD000630FE00B830FF00203030
:100D2C0084000A128A1145260A128A110A128A11A3
:100D3C0016260A128A11F8000A128A1117260A12AC
:100D4C008A11F9000A128A1118260A128A11FA005D
:100D5C000A128A1119260A128A11FB0083010A123F
:100D6C008A11312E41345434453430340D340A3424
:100D7C0000344334543452344C342B345A3400340D
:100D8C004134543441340D340A3400344134543435
:100D9C002B3443345334433453343D3422344734AA
:100DAC0053344D3422340D340A3400344834753401
:100DBC006D3461346E3420344434653474346534A9
:100DCC0063347434653464340034413454342B3417
:100DDC0043344D34473446343D3431340D340A34C5
:100DEC000034413454340D340A3400344134543416
:100DFC002B3443344D34473453343D34223439345A
:100E0C003434383437343834353435343434353488
:100E1C00303422340D340A340034413454342B34FD
:100E2C00433453344D3450343D34313437342C3412
:100E3C003134363437342C3430342C3430340D34A3
:100E4C000A340034483475346D3461346E342034D3
:100E5C006E346F34743420344434653474346534F3
:100E6C00633474346534643400344134543444345D
:100E7C003934343438343734383435343534343414
:100E8C00353430343B340D340A340034F601F70178
:100E9C0083120313881C532F542FE12F0A128A112B
:100EAC001A260A128A115B2F5B2F5F300A128A11E5
:100EBC0067260A128A110330F5008830F400563088
:100ECC00F300F30B672FF40B672FF50B672FDF3055
:100EDC000A128A1167260A128A114C30F500CE309C
:100EEC00F4008130F300F30B792FF40B792FF50B11
:100EFC00792F640053300A128A1167260A128A115C
:100F0C000330F5008830F4005630F300F30B8C2FCF
:100F1C00F40B8C2FF50B8C2F34300A128A116726A8
:100F2C000A128A110330F5008830F4005630F300B1
:100F3C00F30B9E2FF40B9E2FF50B9E2FB7300A123E
:100F4C008A1167260A128A110330F5008830F400E2
:100F5C005630F300F30BB02FF40BB02FF50BB02F72
:100F6C00A0300A128A1167260A128A110330F50082
:100F7C008830F4005630F300F30BC22FF40BC22F61
:100F8C00F50BC22F44300A128A1167260A128A11F5
:100F9C001A300A128A1125260A128A111A30F50003
:100FAC004530F4007E30F300F30BDA2FF40BDA2F1C
:100FBC00F50BDA2FFF2F0A128A111A260A128A1140
:100FCC00CC300A128A1167260A128A111A300A12B8
:100FDC008A1125260A128A111A30F5004530F400C0
:100FEC007E30F300F30BF82FF40BF82FF50BF82FE2
:040FFC00FF2F0800BB
:02400E007A1F17
:00000001FF
