:100000000A128A11382E00308A000408840A8207F6
:100010000034203420342034393434343834373404
:1000200038343534353434343534303420342034B5
:1000300020340034433461346C346C3469346E34AD
:1000400067342034203420344E3475346D346234B7
:1000500065347234003441346E3469346D34613443
:100060006C3420344434653474346534633474340B
:0600700065346434003425
:100B1C0083120313881C932D942D962D0814982D55
:100B2C000810982D0800F000700883120313990028
:100B3C009F2D0C1EA22DA32D9F2D0C1208007E089C
:100B4C008A007F088200A5250A128A118000840A77
:100B5C0004087D0603190034FF0A0319FE0AA92DA7
:100B6C00413454342B3443344D34473453343D34B2
:100B7C004C34383437343834353435343434353403
:100B8C0030340D340A3400348316031388140810DF
:100B9C0007138717203098009030831203139800A6
:100BAC001F30831603139900831203130C128C123B
:100BBC000800F20083120313071087100715720840
:100BCC0086004130F100EE30F000F00BEB2DF10B14
:100BDC00EB2D64008312031307110800F20083123B
:100BEC000313071487100715720886004130F100B3
:100BFC00EE30F000F00B002EF10B002E640083128F
:100C0C000313071108000A128A1185260A128A1189
:100C1C000A128A11CA250A128A11142E0A128A1172
:100C2C00FC260A128A11142E142E0A128A1100287C
:100C3C00F2002E2E72088400831300080A128A1107
:100C4C0099250A128A110130F1007108F2072E2E33
:100C5C007208840083138008031D352E362E202E37
:100C6C00372E08008313B430FD000530FE00B6307B
:100C7C00FF00A03084000A128A11A9250A128A11D9
:100C8C006630FD000630FE00B630FF0020308400D8
:100C9C000A128A11A9250A128A1183010A128A11D1
:100CAC00092EF600772E760884000A128A1103208A
:100CBC000A128A110A128A11F4250A128A110130B9
:100CCC00F3007308F6070230F5004430F400A93045
:100CDC00F300F30B6F2EF40B6F2EF50B6F2E6400DD
:100CEC00772E760884000A128A1103200A128A11C0
:100CFC000038031D822E832E592E842E0800831655
:100D0C000313860107108710071101300A128A118C
:100D1C00DF250A128A1102300A128A11DF250A1203
:100D2C008A1138300A128A11DF250A128A110F3003
:100D3C000A128A11DF250A128A110C300A128A1142
:100D4C00DF250A128A1106300A128A11DF250A12CF
:100D5C008A1180300A128A11DF250A128A110800C2
:100D6C00483475346D3461346E3420344434653415
:100D7C007434653463347434653464340D340A3437
:100D8C000034413454342B3443344D3447344634DA
:100D9C003D3431340D340A340034483475346D34F8
:100DAC0061346E3420344E346F3474342034443413
:100DBC0065347434653463347434653464340034A9
:100DCC00413454344434393434343834373438348A
:100DDC00353435343434353430343B340D340A3412
:100DEC000034413454340D340A340034FA01FB011C
:100DFC0083120313881C032F042FE12F0A128A116C
:100E0C008E250A128A117B087A04031D0E2F0F2FD0
:100E1C00FF2F61300A128A111E260A128A11033022
:100E2C00F9008830F8005630F700F70B1B2FF80B41
:100E3C001B2FF90B1B2F50300A128A111E260A1277
:100E4C008A1101300A128A11DF250A128A118030A8
:100E5C000A128A11DF250A128A1123300A128A110A
:100E6C0057260A128A114C30F900CE30F800813026
:100E7C00F700F70B3F2FF80B3F2FF90B3F2F6400B8
:100E8C0001300A128A11DF250A128A1180300A12E7
:100E9C008A11DF250A128A1112300A128A1157267A
:100EAC000A128A11C0300A128A11DF250A128A111D
:100EBC0001300A128A1157260A128A114C30F90095
:100ECC00CE30F8008130F700F70B6A2FF80B6A2F41
:100EDC00F90B6A2F64004C30F900CE30F8008130E9
:100EEC00F700F70B772FF80B772FF90B772F6400A0
:100EFC004C30F900CE30F8008130F700F70B842F1E
:100F0C00F80B842FF90B842F64004C30F900CE3091
:100F1C00F8008130F700F70B912FF80B912FF90B9C
:100F2C00912F64004C30F900CE30F8008130F7007E
:100F3C00F70B9E2FF80B9E2FF90B9E2F64004C3055
:100F4C00F900CE30F8008130F700F70BAB2FF80B1F
:100F5C00AB2FF90BAB2F64004C30F900CE30F800FE
:100F6C008130F700F70BB82FF80BB82FF90BB82F0F
:100F7C0064004C30F900CE30F8008130F700F70BEC
:100F8C00C52FF80BC52FF90BC52F64004C30F90099
:100F9C00CE30F8008130F700F70BD22FF80BD22FA0
:100FAC00F90BD22F640001300A128A11DF250A12C4
:100FBC008A11FF2FFF2F0A128A118E250A128A110D
:100FCC003D300A128A111E260A128A111A300A1290
:100FDC008A1199250A128A111A30F9004530F80045
:100FEC007E30F700F70BF82FF80BF82FF90BF82FD2
:040FFC00FF2F0800BB
:02400E007A1F17
:00000001FF
